:030000000209787A
:0C097800787FE4F6D8FD758120020800AD
:1008750053797374656D205374617274696E670082
:10088500466C616D6520446574656374656420001C
:1008950044414E474552202121212020202020205F
:1008A50000416C6C205361666520202020202020AB
:1008B500004E6F2048617A6172642020202020203C
:0108C5000032
:1009670020860C7F147E001208EF208602D322C354
:01097700225D
:1008000012090FD2A37F801209437BFF7A08797502
:0F0810001208C67FD07E071208EF7F011209433E
:10081F001209679200300007C2A31208EB8002D2C0
:10082F00A33000217F801209437BFF7A087985125C
:10083F0008C67FC01209437BFF7A0879951208C654
:10084F001208EB80CB7F801209437BFF7A0879A6D1
:10085F001208C67FC01209437BFF7A0879B61208C7
:04086F00C61208EBBA
:0208730080AA59
:10090F007F381209437F0C1209437F061209437F78
:0B091F00011209437F027E000208EF76
:100943008F90C2B0C2B1D2B27F017E001208EFC253
:02095300B222CE
:100955008F90D2B0C2B1D2B27F017E001208EFC231
:02096500B222BC
:1008C6008B088A09890AAB08AA09A90A12092A60AB
:1008D60013050AE50A7002050914F912092AFF121E
:0508E600095580E2222B
:0408EB007F2C7E01DF
:1008EF00E4FDFCC3ED9FEC9E5015E4FBFA0BBB003F
:0F08FF00010ABA04F8BBFBF50DBD00010C80E443
:01090E0022C6
:10092A00BB010689828A83E0225002E722BBFE02CB
:09093A00E32289828A83E49322FE
:00000001FF
